{
  "abi": [
    {
      "type": "constructor",
      "inputs": [
        {
          "name": "name_",
          "type": "string",
          "internalType": "string"
        },
        {
          "name": "symbol_",
          "type": "string",
          "internalType": "string"
        },
        {
          "name": "newOwner_",
          "type": "address",
          "internalType": "address"
        },
        {
          "name": "service_",
          "type": "address",
          "internalType": "address"
        },
        {
          "name": "verifier_",
          "type": "address",
          "internalType": "address"
        },
        {
          "name": "tokenSupplyCap_",
          "type": "uint256",
          "internalType": "uint256"
        },
        {
          "name": "serviceFeePoints_",
          "type": "uint32",
          "internalType": "uint32"
        }
      ],
      "stateMutability": "nonpayable"
    },
    {
      "type": "fallback",
      "stateMutability": "payable"
    },
    {
      "type": "receive",
      "stateMutability": "payable"
    },
    {
      "type": "function",
      "name": "activate",
      "inputs": [],
      "outputs": [],
      "stateMutability": "nonpayable"
    },
    {
      "type": "function",
      "name": "activated",
      "inputs": [],
      "outputs": [
        {
          "name": "",
          "type": "bool",
          "internalType": "bool"
        }
      ],
      "stateMutability": "view"
    },
    {
      "type": "function",
      "name": "allowlist",
      "inputs": [],
      "outputs": [
        {
          "name": "aRoot",
          "type": "bytes32",
          "internalType": "bytes32"
        }
      ],
      "stateMutability": "view"
    },
    {
      "type": "function",
      "name": "authorizeOperator",
      "inputs": [
        {
          "name": "operator",
          "type": "address",
          "internalType": "address"
        },
        {
          "name": "tokenId",
          "type": "bytes32",
          "internalType": "bytes32"
        },
        {
          "name": "operatorNotificationData",
          "type": "bytes",
          "internalType": "bytes"
        }
      ],
      "outputs": [],
      "stateMutability": "nonpayable"
    },
    {
      "type": "function",
      "name": "balanceOf",
      "inputs": [
        {
          "name": "tokenOwner",
          "type": "address",
          "internalType": "address"
        }
      ],
      "outputs": [
        {
          "name": "",
          "type": "uint256",
          "internalType": "uint256"
        }
      ],
      "stateMutability": "view"
    },
    {
      "type": "function",
      "name": "batchCalls",
      "inputs": [
        {
          "name": "data",
          "type": "bytes[]",
          "internalType": "bytes[]"
        }
      ],
      "outputs": [
        {
          "name": "results",
          "type": "bytes[]",
          "internalType": "bytes[]"
        }
      ],
      "stateMutability": "nonpayable"
    },
    {
      "type": "function",
      "name": "claim",
      "inputs": [
        {
          "name": "beneficiary",
          "type": "address",
          "internalType": "address"
        },
        {
          "name": "amount",
          "type": "uint256",
          "internalType": "uint256"
        }
      ],
      "outputs": [],
      "stateMutability": "nonpayable"
    },
    {
      "type": "function",
      "name": "claimBalanceOf",
      "inputs": [
        {
          "name": "account",
          "type": "address",
          "internalType": "address"
        }
      ],
      "outputs": [
        {
          "name": "",
          "type": "uint256",
          "internalType": "uint256"
        }
      ],
      "stateMutability": "view"
    },
    {
      "type": "function",
      "name": "configure",
      "inputs": [
        {
          "name": "startTime_",
          "type": "uint256",
          "internalType": "uint256"
        },
        {
          "name": "mintPrice_",
          "type": "uint256",
          "internalType": "uint256"
        },
        {
          "name": "profileMintLimit_",
          "type": "uint256",
          "internalType": "uint256"
        },
        {
          "name": "allowlistRoot_",
          "type": "bytes32",
          "internalType": "bytes32"
        }
      ],
      "outputs": [],
      "stateMutability": "nonpayable"
    },
    {
      "type": "function",
      "name": "deactivate",
      "inputs": [],
      "outputs": [],
      "stateMutability": "nonpayable"
    },
    {
      "type": "function",
      "name": "defaultTokenUri",
      "inputs": [],
      "outputs": [
        {
          "name": "",
          "type": "bytes",
          "internalType": "bytes"
        }
      ],
      "stateMutability": "view"
    },
    {
      "type": "function",
      "name": "getData",
      "inputs": [
        {
          "name": "dataKey",
          "type": "bytes32",
          "internalType": "bytes32"
        }
      ],
      "outputs": [
        {
          "name": "dataValue",
          "type": "bytes",
          "internalType": "bytes"
        }
      ],
      "stateMutability": "view"
    },
    {
      "type": "function",
      "name": "getDataBatch",
      "inputs": [
        {
          "name": "dataKeys",
          "type": "bytes32[]",
          "internalType": "bytes32[]"
        }
      ],
      "outputs": [
        {
          "name": "dataValues",
          "type": "bytes[]",
          "internalType": "bytes[]"
        }
      ],
      "stateMutability": "view"
    },
    {
      "type": "function",
      "name": "getDataBatchForTokenIds",
      "inputs": [
        {
          "name": "tokenIds",
          "type": "bytes32[]",
          "internalType": "bytes32[]"
        },
        {
          "name": "dataKeys",
          "type": "bytes32[]",
          "internalType": "bytes32[]"
        }
      ],
      "outputs": [
        {
          "name": "dataValues",
          "type": "bytes[]",
          "internalType": "bytes[]"
        }
      ],
      "stateMutability": "view"
    },
    {
      "type": "function",
      "name": "getDataForTokenId",
      "inputs": [
        {
          "name": "tokenId",
          "type": "bytes32",
          "internalType": "bytes32"
        },
        {
          "name": "dataKey",
          "type": "bytes32",
          "internalType": "bytes32"
        }
      ],
      "outputs": [
        {
          "name": "dataValue",
          "type": "bytes",
          "internalType": "bytes"
        }
      ],
      "stateMutability": "view"
    },
    {
      "type": "function",
      "name": "getOperatorsOf",
      "inputs": [
        {
          "name": "tokenId",
          "type": "bytes32",
          "internalType": "bytes32"
        }
      ],
      "outputs": [
        {
          "name": "",
          "type": "address[]",
          "internalType": "address[]"
        }
      ],
      "stateMutability": "view"
    },
    {
      "type": "function",
      "name": "isOperatorFor",
      "inputs": [
        {
          "name": "operator",
          "type": "address",
          "internalType": "address"
        },
        {
          "name": "tokenId",
          "type": "bytes32",
          "internalType": "bytes32"
        }
      ],
      "outputs": [
        {
          "name": "",
          "type": "bool",
          "internalType": "bool"
        }
      ],
      "stateMutability": "view"
    },
    {
      "type": "function",
      "name": "mint",
      "inputs": [
        {
          "name": "recipient",
          "type": "address",
          "internalType": "address"
        },
        {
          "name": "amount",
          "type": "uint256",
          "internalType": "uint256"
        },
        {
          "name": "v",
          "type": "uint8",
          "internalType": "uint8"
        },
        {
          "name": "r",
          "type": "bytes32",
          "internalType": "bytes32"
        },
        {
          "name": "s",
          "type": "bytes32",
          "internalType": "bytes32"
        }
      ],
      "outputs": [],
      "stateMutability": "payable"
    },
    {
      "type": "function",
      "name": "mintAllowlist",
      "inputs": [
        {
          "name": "proof",
          "type": "bytes32[]",
          "internalType": "bytes32[]"
        },
        {
          "name": "index",
          "type": "uint256",
          "internalType": "uint256"
        },
        {
          "name": "recipient",
          "type": "address",
          "internalType": "address"
        },
        {
          "name": "amount",
          "type": "uint256",
          "internalType": "uint256"
        },
        {
          "name": "v",
          "type": "uint8",
          "internalType": "uint8"
        },
        {
          "name": "r",
          "type": "bytes32",
          "internalType": "bytes32"
        },
        {
          "name": "s",
          "type": "bytes32",
          "internalType": "bytes32"
        }
      ],
      "outputs": [],
      "stateMutability": "payable"
    },
    {
      "type": "function",
      "name": "mintPrice",
      "inputs": [],
      "outputs": [
        {
          "name": "",
          "type": "uint256",
          "internalType": "uint256"
        }
      ],
      "stateMutability": "view"
    },
    {
      "type": "function",
      "name": "owner",
      "inputs": [],
      "outputs": [
        {
          "name": "",
          "type": "address",
          "internalType": "address"
        }
      ],
      "stateMutability": "view"
    },
    {
      "type": "function",
      "name": "profileMintLimit",
      "inputs": [],
      "outputs": [
        {
          "name": "",
          "type": "uint256",
          "internalType": "uint256"
        }
      ],
      "stateMutability": "view"
    },
    {
      "type": "function",
      "name": "renounceOwnership",
      "inputs": [],
      "outputs": [],
      "stateMutability": "nonpayable"
    },
    {
      "type": "function",
      "name": "revokeOperator",
      "inputs": [
        {
          "name": "operator",
          "type": "address",
          "internalType": "address"
        },
        {
          "name": "tokenId",
          "type": "bytes32",
          "internalType": "bytes32"
        },
        {
          "name": "notify",
          "type": "bool",
          "internalType": "bool"
        },
        {
          "name": "operatorNotificationData",
          "type": "bytes",
          "internalType": "bytes"
        }
      ],
      "outputs": [],
      "stateMutability": "nonpayable"
    },
    {
      "type": "function",
      "name": "service",
      "inputs": [],
      "outputs": [
        {
          "name": "",
          "type": "address",
          "internalType": "address"
        }
      ],
      "stateMutability": "view"
    },
    {
      "type": "function",
      "name": "serviceFeePoints",
      "inputs": [],
      "outputs": [
        {
          "name": "",
          "type": "uint32",
          "internalType": "uint32"
        }
      ],
      "stateMutability": "view"
    },
    {
      "type": "function",
      "name": "setData",
      "inputs": [
        {
          "name": "dataKey",
          "type": "bytes32",
          "internalType": "bytes32"
        },
        {
          "name": "dataValue",
          "type": "bytes",
          "internalType": "bytes"
        }
      ],
      "outputs": [],
      "stateMutability": "payable"
    },
    {
      "type": "function",
      "name": "setDataBatch",
      "inputs": [
        {
          "name": "dataKeys",
          "type": "bytes32[]",
          "internalType": "bytes32[]"
        },
        {
          "name": "dataValues",
          "type": "bytes[]",
          "internalType": "bytes[]"
        }
      ],
      "outputs": [],
      "stateMutability": "payable"
    },
    {
      "type": "function",
      "name": "setDataBatchForTokenIds",
      "inputs": [
        {
          "name": "tokenIds",
          "type": "bytes32[]",
          "internalType": "bytes32[]"
        },
        {
          "name": "dataKeys",
          "type": "bytes32[]",
          "internalType": "bytes32[]"
        },
        {
          "name": "dataValues",
          "type": "bytes[]",
          "internalType": "bytes[]"
        }
      ],
      "outputs": [],
      "stateMutability": "nonpayable"
    },
    {
      "type": "function",
      "name": "setDataForTokenId",
      "inputs": [
        {
          "name": "tokenId",
          "type": "bytes32",
          "internalType": "bytes32"
        },
        {
          "name": "dataKey",
          "type": "bytes32",
          "internalType": "bytes32"
        },
        {
          "name": "dataValue",
          "type": "bytes",
          "internalType": "bytes"
        }
      ],
      "outputs": [],
      "stateMutability": "nonpayable"
    },
    {
      "type": "function",
      "name": "setDefaultTokenUri",
      "inputs": [
        {
          "name": "newTokenUri",
          "type": "bytes",
          "internalType": "bytes"
        }
      ],
      "outputs": [],
      "stateMutability": "nonpayable"
    },
    {
      "type": "function",
      "name": "startTime",
      "inputs": [],
      "outputs": [
        {
          "name": "",
          "type": "uint256",
          "internalType": "uint256"
        }
      ],
      "stateMutability": "view"
    },
    {
      "type": "function",
      "name": "supportsInterface",
      "inputs": [
        {
          "name": "interfaceId",
          "type": "bytes4",
          "internalType": "bytes4"
        }
      ],
      "outputs": [
        {
          "name": "",
          "type": "bool",
          "internalType": "bool"
        }
      ],
      "stateMutability": "view"
    },
    {
      "type": "function",
      "name": "tokenAt",
      "inputs": [
        {
          "name": "index",
          "type": "uint256",
          "internalType": "uint256"
        }
      ],
      "outputs": [
        {
          "name": "",
          "type": "bytes32",
          "internalType": "bytes32"
        }
      ],
      "stateMutability": "view"
    },
    {
      "type": "function",
      "name": "tokenIdsOf",
      "inputs": [
        {
          "name": "tokenOwner",
          "type": "address",
          "internalType": "address"
        }
      ],
      "outputs": [
        {
          "name": "",
          "type": "bytes32[]",
          "internalType": "bytes32[]"
        }
      ],
      "stateMutability": "view"
    },
    {
      "type": "function",
      "name": "tokenOwnerOf",
      "inputs": [
        {
          "name": "tokenId",
          "type": "bytes32",
          "internalType": "bytes32"
        }
      ],
      "outputs": [
        {
          "name": "",
          "type": "address",
          "internalType": "address"
        }
      ],
      "stateMutability": "view"
    },
    {
      "type": "function",
      "name": "tokenSupplyCap",
      "inputs": [],
      "outputs": [
        {
          "name": "",
          "type": "uint256",
          "internalType": "uint256"
        }
      ],
      "stateMutability": "view"
    },
    {
      "type": "function",
      "name": "totalSupply",
      "inputs": [],
      "outputs": [
        {
          "name": "",
          "type": "uint256",
          "internalType": "uint256"
        }
      ],
      "stateMutability": "view"
    },
    {
      "type": "function",
      "name": "transfer",
      "inputs": [
        {
          "name": "from",
          "type": "address",
          "internalType": "address"
        },
        {
          "name": "to",
          "type": "address",
          "internalType": "address"
        },
        {
          "name": "tokenId",
          "type": "bytes32",
          "internalType": "bytes32"
        },
        {
          "name": "force",
          "type": "bool",
          "internalType": "bool"
        },
        {
          "name": "data",
          "type": "bytes",
          "internalType": "bytes"
        }
      ],
      "outputs": [],
      "stateMutability": "nonpayable"
    },
    {
      "type": "function",
      "name": "transferBatch",
      "inputs": [
        {
          "name": "from",
          "type": "address[]",
          "internalType": "address[]"
        },
        {
          "name": "to",
          "type": "address[]",
          "internalType": "address[]"
        },
        {
          "name": "tokenId",
          "type": "bytes32[]",
          "internalType": "bytes32[]"
        },
        {
          "name": "force",
          "type": "bool[]",
          "internalType": "bool[]"
        },
        {
          "name": "data",
          "type": "bytes[]",
          "internalType": "bytes[]"
        }
      ],
      "outputs": [],
      "stateMutability": "nonpayable"
    },
    {
      "type": "function",
      "name": "transferOwnership",
      "inputs": [
        {
          "name": "newOwner",
          "type": "address",
          "internalType": "address"
        }
      ],
      "outputs": [],
      "stateMutability": "nonpayable"
    },
    {
      "type": "function",
      "name": "verifier",
      "inputs": [],
      "outputs": [
        {
          "name": "",
          "type": "address",
          "internalType": "address"
        }
      ],
      "stateMutability": "view"
    },
    {
      "type": "event",
      "name": "Activated",
      "inputs": [],
      "anonymous": false
    },
    {
      "type": "event",
      "name": "Claimed",
      "inputs": [
        {
          "name": "account",
          "type": "address",
          "indexed": true,
          "internalType": "address"
        },
        {
          "name": "beneficiary",
          "type": "address",
          "indexed": true,
          "internalType": "address"
        },
        {
          "name": "amount",
          "type": "uint256",
          "indexed": false,
          "internalType": "uint256"
        }
      ],
      "anonymous": false
    },
    {
      "type": "event",
      "name": "ConfigurationChanged",
      "inputs": [
        {
          "name": "startTime",
          "type": "uint256",
          "indexed": false,
          "internalType": "uint256"
        },
        {
          "name": "mintPrice",
          "type": "uint256",
          "indexed": false,
          "internalType": "uint256"
        },
        {
          "name": "profileMintLimit",
          "type": "uint256",
          "indexed": false,
          "internalType": "uint256"
        },
        {
          "name": "allowlistRoot",
          "type": "bytes32",
          "indexed": false,
          "internalType": "bytes32"
        }
      ],
      "anonymous": false
    },
    {
      "type": "event",
      "name": "DataChanged",
      "inputs": [
        {
          "name": "dataKey",
          "type": "bytes32",
          "indexed": true,
          "internalType": "bytes32"
        },
        {
          "name": "dataValue",
          "type": "bytes",
          "indexed": false,
          "internalType": "bytes"
        }
      ],
      "anonymous": false
    },
    {
      "type": "event",
      "name": "Deactivated",
      "inputs": [],
      "anonymous": false
    },
    {
      "type": "event",
      "name": "DefaultTokenDataChanged",
      "inputs": [
        {
          "name": "defaultTokenData",
          "type": "bytes",
          "indexed": false,
          "internalType": "bytes"
        }
      ],
      "anonymous": false
    },
    {
      "type": "event",
      "name": "Minted",
      "inputs": [
        {
          "name": "recipient",
          "type": "address",
          "indexed": true,
          "internalType": "address"
        },
        {
          "name": "tokenIds",
          "type": "bytes32[]",
          "indexed": false,
          "internalType": "bytes32[]"
        },
        {
          "name": "totalPrice",
          "type": "uint256",
          "indexed": false,
          "internalType": "uint256"
        }
      ],
      "anonymous": false
    },
    {
      "type": "event",
      "name": "OperatorAuthorizationChanged",
      "inputs": [
        {
          "name": "operator",
          "type": "address",
          "indexed": true,
          "internalType": "address"
        },
        {
          "name": "tokenOwner",
          "type": "address",
          "indexed": true,
          "internalType": "address"
        },
        {
          "name": "tokenId",
          "type": "bytes32",
          "indexed": true,
          "internalType": "bytes32"
        },
        {
          "name": "operatorNotificationData",
          "type": "bytes",
          "indexed": false,
          "internalType": "bytes"
        }
      ],
      "anonymous": false
    },
    {
      "type": "event",
      "name": "OperatorRevoked",
      "inputs": [
        {
          "name": "operator",
          "type": "address",
          "indexed": true,
          "internalType": "address"
        },
        {
          "name": "tokenOwner",
          "type": "address",
          "indexed": true,
          "internalType": "address"
        },
        {
          "name": "tokenId",
          "type": "bytes32",
          "indexed": true,
          "internalType": "bytes32"
        },
        {
          "name": "notified",
          "type": "bool",
          "indexed": false,
          "internalType": "bool"
        },
        {
          "name": "operatorNotificationData",
          "type": "bytes",
          "indexed": false,
          "internalType": "bytes"
        }
      ],
      "anonymous": false
    },
    {
      "type": "event",
      "name": "OwnershipTransferred",
      "inputs": [
        {
          "name": "previousOwner",
          "type": "address",
          "indexed": true,
          "internalType": "address"
        },
        {
          "name": "newOwner",
          "type": "address",
          "indexed": true,
          "internalType": "address"
        }
      ],
      "anonymous": false
    },
    {
      "type": "event",
      "name": "TokenIdDataChanged",
      "inputs": [
        {
          "name": "tokenId",
          "type": "bytes32",
          "indexed": true,
          "internalType": "bytes32"
        },
        {
          "name": "dataKey",
          "type": "bytes32",
          "indexed": true,
          "internalType": "bytes32"
        },
        {
          "name": "dataValue",
          "type": "bytes",
          "indexed": false,
          "internalType": "bytes"
        }
      ],
      "anonymous": false
    },
    {
      "type": "event",
      "name": "Transfer",
      "inputs": [
        {
          "name": "operator",
          "type": "address",
          "indexed": false,
          "internalType": "address"
        },
        {
          "name": "from",
          "type": "address",
          "indexed": true,
          "internalType": "address"
        },
        {
          "name": "to",
          "type": "address",
          "indexed": true,
          "internalType": "address"
        },
        {
          "name": "tokenId",
          "type": "bytes32",
          "indexed": true,
          "internalType": "bytes32"
        },
        {
          "name": "force",
          "type": "bool",
          "indexed": false,
          "internalType": "bool"
        },
        {
          "name": "data",
          "type": "bytes",
          "indexed": false,
          "internalType": "bytes"
        }
      ],
      "anonymous": false
    },
    {
      "type": "error",
      "name": "AlreadyClaimed",
      "inputs": [
        {
          "name": "index",
          "type": "uint256",
          "internalType": "uint256"
        },
        {
          "name": "data",
          "type": "bytes",
          "internalType": "bytes"
        }
      ]
    },
    {
      "type": "error",
      "name": "ClaimInvalidAmount",
      "inputs": [
        {
          "name": "amount",
          "type": "uint256",
          "internalType": "uint256"
        }
      ]
    },
    {
      "type": "error",
      "name": "ClaimingUnavailable",
      "inputs": []
    },
    {
      "type": "error",
      "name": "ERC725Y_DataKeysValuesEmptyArray",
      "inputs": []
    },
    {
      "type": "error",
      "name": "ERC725Y_DataKeysValuesLengthMismatch",
      "inputs": []
    },
    {
      "type": "error",
      "name": "ERC725Y_MsgValueDisallowed",
      "inputs": []
    },
    {
      "type": "error",
      "name": "Inactive",
      "inputs": []
    },
    {
      "type": "error",
      "name": "InvalidClaim",
      "inputs": [
        {
          "name": "index",
          "type": "uint256",
          "internalType": "uint256"
        },
        {
          "name": "data",
          "type": "bytes",
          "internalType": "bytes"
        }
      ]
    },
    {
      "type": "error",
      "name": "InvalidExtensionAddress",
      "inputs": [
        {
          "name": "storedData",
          "type": "bytes",
          "internalType": "bytes"
        }
      ]
    },
    {
      "type": "error",
      "name": "InvalidFunctionSelector",
      "inputs": [
        {
          "name": "data",
          "type": "bytes",
          "internalType": "bytes"
        }
      ]
    },
    {
      "type": "error",
      "name": "InvalidServiceFee",
      "inputs": [
        {
          "name": "fee",
          "type": "uint256",
          "internalType": "uint256"
        }
      ]
    },
    {
      "type": "error",
      "name": "InvalidStartTime",
      "inputs": [
        {
          "name": "startTime",
          "type": "uint256",
          "internalType": "uint256"
        }
      ]
    },
    {
      "type": "error",
      "name": "LSP4TokenNameNotEditable",
      "inputs": []
    },
    {
      "type": "error",
      "name": "LSP4TokenSymbolNotEditable",
      "inputs": []
    },
    {
      "type": "error",
      "name": "LSP4TokenTypeNotEditable",
      "inputs": []
    },
    {
      "type": "error",
      "name": "LSP8BatchCallFailed",
      "inputs": [
        {
          "name": "callIndex",
          "type": "uint256",
          "internalType": "uint256"
        }
      ]
    },
    {
      "type": "error",
      "name": "LSP8CannotSendToAddressZero",
      "inputs": []
    },
    {
      "type": "error",
      "name": "LSP8CannotSendToSelf",
      "inputs": []
    },
    {
      "type": "error",
      "name": "LSP8CannotUseAddressZeroAsOperator",
      "inputs": []
    },
    {
      "type": "error",
      "name": "LSP8CappedSupplyCannotMintOverCap",
      "inputs": []
    },
    {
      "type": "error",
      "name": "LSP8CappedSupplyRequired",
      "inputs": []
    },
    {
      "type": "error",
      "name": "LSP8InvalidTransferBatch",
      "inputs": []
    },
    {
      "type": "error",
      "name": "LSP8NonExistentTokenId",
      "inputs": [
        {
          "name": "tokenId",
          "type": "bytes32",
          "internalType": "bytes32"
        }
      ]
    },
    {
      "type": "error",
      "name": "LSP8NonExistingOperator",
      "inputs": [
        {
          "name": "operator",
          "type": "address",
          "internalType": "address"
        },
        {
          "name": "tokenId",
          "type": "bytes32",
          "internalType": "bytes32"
        }
      ]
    },
    {
      "type": "error",
      "name": "LSP8NotTokenOperator",
      "inputs": [
        {
          "name": "tokenId",
          "type": "bytes32",
          "internalType": "bytes32"
        },
        {
          "name": "caller",
          "type": "address",
          "internalType": "address"
        }
      ]
    },
    {
      "type": "error",
      "name": "LSP8NotTokenOwner",
      "inputs": [
        {
          "name": "tokenOwner",
          "type": "address",
          "internalType": "address"
        },
        {
          "name": "tokenId",
          "type": "bytes32",
          "internalType": "bytes32"
        },
        {
          "name": "caller",
          "type": "address",
          "internalType": "address"
        }
      ]
    },
    {
      "type": "error",
      "name": "LSP8NotifyTokenReceiverContractMissingLSP1Interface",
      "inputs": [
        {
          "name": "tokenReceiver",
          "type": "address",
          "internalType": "address"
        }
      ]
    },
    {
      "type": "error",
      "name": "LSP8NotifyTokenReceiverIsEOA",
      "inputs": [
        {
          "name": "tokenReceiver",
          "type": "address",
          "internalType": "address"
        }
      ]
    },
    {
      "type": "error",
      "name": "LSP8OperatorAlreadyAuthorized",
      "inputs": [
        {
          "name": "operator",
          "type": "address",
          "internalType": "address"
        },
        {
          "name": "tokenId",
          "type": "bytes32",
          "internalType": "bytes32"
        }
      ]
    },
    {
      "type": "error",
      "name": "LSP8TokenContractCannotHoldValue",
      "inputs": []
    },
    {
      "type": "error",
      "name": "LSP8TokenIdAlreadyMinted",
      "inputs": [
        {
          "name": "tokenId",
          "type": "bytes32",
          "internalType": "bytes32"
        }
      ]
    },
    {
      "type": "error",
      "name": "LSP8TokenIdFormatNotEditable",
      "inputs": []
    },
    {
      "type": "error",
      "name": "LSP8TokenIdsDataEmptyArray",
      "inputs": []
    },
    {
      "type": "error",
      "name": "LSP8TokenIdsDataLengthMismatch",
      "inputs": []
    },
    {
      "type": "error",
      "name": "LSP8TokenOwnerCannotBeOperator",
      "inputs": []
    },
    {
      "type": "error",
      "name": "MintDisallowed",
      "inputs": []
    },
    {
      "type": "error",
      "name": "MintExceedLimit",
      "inputs": [
        {
          "name": "amount",
          "type": "uint256",
          "internalType": "uint256"
        }
      ]
    },
    {
      "type": "error",
      "name": "MintInvalidAmount",
      "inputs": [
        {
          "name": "amount",
          "type": "uint256",
          "internalType": "uint256"
        }
      ]
    },
    {
      "type": "error",
      "name": "MintInvalidSignature",
      "inputs": []
    },
    {
      "type": "error",
      "name": "NoExtensionFoundForFunctionSelector",
      "inputs": [
        {
          "name": "functionSelector",
          "type": "bytes4",
          "internalType": "bytes4"
        }
      ]
    },
    {
      "type": "error",
      "name": "OwnableCallerNotTheOwner",
      "inputs": [
        {
          "name": "callerAddress",
          "type": "address",
          "internalType": "address"
        }
      ]
    },
    {
      "type": "error",
      "name": "OwnableCannotSetZeroAddressAsOwner",
      "inputs": []
    },
    {
      "type": "error",
      "name": "ProfileMintZeroLimit",
      "inputs": []
    },
    {
      "type": "error",
      "name": "UnpaidClaim",
      "inputs": [
        {
          "name": "account",
          "type": "address",
          "internalType": "address"
        },
        {
          "name": "amount",
          "type": "uint256",
          "internalType": "uint256"
        }
      ]
    },
    {
      "type": "error",
      "name": "ZeroAddress",
      "inputs": []
    },
    {
      "type": "error",
      "name": "ZeroAmount",
      "inputs": []
    }
  ],
  "bytecode": {
    "object": "0x6101006040523480156200001257600080fd5b5060405162004e7b38038062004e7b833981016040819052620000359162000579565b838382848a8a8a6001600084848484816001600160a01b0381166200006d576040516306b620db60e21b815260040160405180910390fd5b6200007881620002f5565b506040805180820190915260048152632936598960e21b6020820152620000c1907feafec4d89fa9619884b60000a4d96624a38f7ac2d8d9a604ecf07c12c77e480c9062000363565b620000ed7fdeba1e292f8ba88238e10ab3c7f88bd4be4fac56cad5194b6ecceaf653468af18562000363565b620001197f2f0a68ab07768e01943a599e73362a0e17a63a72e94dd2e384d2c1d4db9327568462000363565b604080516020810183905262000162917fe0261fa95db2eb3b5439bd033cda66d56b96f92f243a8228fd87550ed7bdfdb3910160408051601f1981840301815291905262000363565b50506040805160208101859052620001af93507ff675e9361af1c1664c1868cfa3eb97672d6b1a513aa5b81dec34c9ee330e818d92500160408051601f19818403018152919052620003bc565b505050505080600003620001d65760405163038d9fc360e41b815260040160405180910390fd5b6080526001600955604051633c7bdc1960e01b815263ffffffff8216600482015273__$5b628ca37b8143f672fcf025daef31bc96$__90633c7bdc1990602401602060405180830381865af415801562000234573d6000803e3d6000fd5b505050506040513d601f19601f820116820180604052508101906200025a919062000643565b62000284576040516363a0a0e760e01b815263ffffffff8216600482015260240160405180910390fd5b6001600160a01b0383161580620002a257506001600160a01b038216155b15620002c15760405163d92e233d60e01b815260040160405180910390fd5b600f805460ff191690556001600160a01b0392831660c052911660e05263ffffffff1660a052506200080095505050505050565b6000546001600160a01b038281169116146200036057600080546040516001600160a01b03808516939216917f8be0079c531659141344cd1fd0a4f28419497f9722a3daafe3b4186f6b6457e091a3600080546001600160a01b0319166001600160a01b0383161790555b50565b60008281526001602052604090206200037d8282620006ff565b50817fece574603820d07bc9b91f2a932baadf4628aabcb8afba49776529c14a6104b282604051620003b09190620007cb565b60405180910390a25050565b620003c88282620003cc565b5050565b7f2145e1d6d074577dc71ef54c3807742b41b053a9352ae6b491331509acb9750f82016200040d576040516385c169bd60e01b815260040160405180910390fd5b7fd0f59754f88971fe6bc5a6618cc9d5f1e859c58d16b22d1c7b2d3e2b246cd8aa82016200044e57604051630eceab6760e31b815260040160405180910390fd5b7f1fd9e056a24d14c4abc642fcc325992a946906d0dbc57dd70278aaf12842024d82016200036357604051634ef6d7fb60e01b815260040160405180910390fd5b634e487b7160e01b600052604160045260246000fd5b60005b83811015620004c2578181015183820152602001620004a8565b50506000910152565b600082601f830112620004dd57600080fd5b81516001600160401b0380821115620004fa57620004fa6200048f565b604051601f8301601f19908116603f011681019082821181831017156200052557620005256200048f565b816040528381528660208588010111156200053f57600080fd5b62000552846020830160208901620004a5565b9695505050505050565b80516001600160a01b03811681146200057457600080fd5b919050565b600080600080600080600060e0888a0312156200059557600080fd5b87516001600160401b0380821115620005ad57600080fd5b620005bb8b838c01620004cb565b985060208a0151915080821115620005d257600080fd5b50620005e18a828b01620004cb565b965050620005f2604089016200055c565b945062000602606089016200055c565b935062000612608089016200055c565b925060a0880151915060c088015163ffffffff811681146200063357600080fd5b8091505092959891949750929550565b6000602082840312156200065657600080fd5b815180151581146200066757600080fd5b9392505050565b600181811c908216806200068357607f821691505b602082108103620006a457634e487b7160e01b600052602260045260246000fd5b50919050565b601f821115620006fa576000816000526020600020601f850160051c81016020861015620006d55750805b601f850160051c820191505b81811015620006f657828155600101620006e1565b5050505b505050565b81516001600160401b038111156200071b576200071b6200048f565b62000733816200072c84546200066e565b84620006aa565b602080601f8311600181146200076b5760008415620007525750858301515b600019600386901b1c1916600185901b178555620006f6565b600085815260208120601f198616915b828110156200079c578886015182559484019460019091019084016200077b565b5085821015620007bb5787850151600019600388901b60f8161c191681555b5050505050600190811b01905550565b6020815260008251806020840152620007ec816040850160208701620004a5565b601f01601f19169190910160400192915050565b60805160a05160c05160e05161462562000856600039600081816104e801526123d501526000818161082f015261260901526000818161053c01526125210152600081816105e401526133a301526146256000f3fe6080604052600436106102d55760003560e01c806378e9792511610179578063aad3ec96116100d6578063dd5ffa1e1161008a578063f2fde38b11610064578063f2fde38b146108d9578063f575191e146108f9578063fc6180711461090f57610349565b8063dd5ffa1e14610891578063dedff9c6146108a6578063edb8d1e2146108c657610349565b8063d598d4c9116100bb578063d598d4c91461081d578063d6c1407c14610851578063db8c96631461087157610349565b8063aad3ec96146107dd578063be9f0e6f146107fd57610349565b80638da5cb5b1161012d578063942cd44b11610112578063942cd44b14610767578063979024211461079d578063a3b261f2146107b057610349565b80638da5cb5b1461071c57806392a91a3a1461073a57610349565b80637f23690c1161015e5780637f23690c146106c957806386a10ddd146106dc5780638bbd4378146106fc57610349565b806378e97925146106935780637e87632c146106a957610349565b806337e3f8dc1161023257806352058d8a116101e65780636963d438116101c05780636963d4381461063e57806370a082311461065e578063715018a61461067e57610349565b806352058d8a146105d557806354f6127f146106085780636817c76c1461062857610349565b806349a6078d1161021757806349a6078d14610573578063511b6952146105a057806351b42b00146105c057610349565b806337e3f8dc1461050a5780633c3e8ae31461052a57610349565b80631d26fce6116102895780632a3654a41161026e5780632a3654a4146104a15780632b47da52146104c15780632b7ac3f3146104d657610349565b80631d26fce61461043c578063217b22701461046957610349565b806316e023b3116102ba57806316e023b3146103d657806318160ddd14610403578063186601ca1461042257610349565b806301ffc9a71461038a5780630f15f4c0146103bf57610349565b3661034957346000036103175760405163e5099ee360e01b815260040161030e9060208082526004908201526000604082015260600190565b60405180910390fd5b6040517f61f4944200000000000000000000000000000000000000000000000000000000815260040160405180910390fd5b6000366060600482101561037457828260405163e5099ee360e01b815260040161030e929190613579565b61037e8383610922565b80519350602001915050f35b34801561039657600080fd5b506103aa6103a53660046135a8565b610a31565b60405190151581526020015b60405180910390f35b3480156103cb57600080fd5b506103d4610a7e565b005b3480156103e257600080fd5b506103f66103f13660046135d2565b610a90565b6040516103b69190613644565b34801561040f57600080fd5b506002545b6040519081526020016103b6565b34801561042e57600080fd5b50600f546103aa9060ff1681565b34801561044857600080fd5b5061045c610457366004613731565b610aa3565b6040516103b69190613795565b34801561047557600080fd5b506104896104843660046137f9565b610b69565b6040516001600160a01b0390911681526020016103b6565b3480156104ad57600080fd5b506103aa6104bc36600461382e565b610ba2565b3480156104cd57600080fd5b50610414610bb7565b3480156104e257600080fd5b506104897f000000000000000000000000000000000000000000000000000000000000000081565b34801561051657600080fd5b506103d4610525366004613858565b610bc7565b34801561053657600080fd5b5061055e7f000000000000000000000000000000000000000000000000000000000000000081565b60405163ffffffff90911681526020016103b6565b34801561057f57600080fd5b5061059361058e3660046137f9565b610c1a565b6040516103b691906138ca565b3480156105ac57600080fd5b506103d46105bb3660046139a0565b610c3c565b3480156105cc57600080fd5b506103d4610c99565b3480156105e157600080fd5b507f0000000000000000000000000000000000000000000000000000000000000000610414565b34801561061457600080fd5b506103f66106233660046137f9565b610ce1565b34801561063457600080fd5b50610414600d5481565b34801561064a57600080fd5b5061045c610659366004613a65565b610cec565b34801561066a57600080fd5b50610414610679366004613aa7565b610e35565b34801561068a57600080fd5b506103d4610e40565b34801561069f57600080fd5b50610414600c5481565b3480156106b557600080fd5b506103d46106c4366004613c0e565b610e52565b6103d46106d7366004613cd3565b610f5a565b3480156106e857600080fd5b506103d46106f7366004613d10565b610f8f565b34801561070857600080fd5b506103d4610717366004613d67565b611122565b34801561072857600080fd5b506000546001600160a01b0316610489565b34801561074657600080fd5b506104146107553660046137f9565b60009081526007602052604090205490565b34801561077357600080fd5b50610414610782366004613aa7565b6001600160a01b031660009081526010602052604090205490565b6103d46107ab366004613d99565b611207565b3480156107bc57600080fd5b506107d06107cb366004613aa7565b6112f9565b6040516103b69190613e2f565b3480156107e957600080fd5b506103d46107f836600461382e565b61131d565b34801561080957600080fd5b506103d4610818366004613e42565b6114f9565b34801561082957600080fd5b506104897f000000000000000000000000000000000000000000000000000000000000000081565b34801561085d57600080fd5b506103d461086c366004613ec0565b6115f6565b34801561087d57600080fd5b506103d461088c366004613efa565b611609565b34801561089d57600080fd5b506103f66116dd565b3480156108b257600080fd5b5061045c6108c1366004613f62565b61176b565b6103d46108d4366004613fa8565b611816565b3480156108e557600080fd5b506103d46108f4366004613aa7565b6118c8565b34801561090557600080fd5b50610414600e5481565b6103d461091d366004614032565b61191c565b6060600061093b6000356001600160e01b0319166119a6565b5090506001600160a01b03811661098c576040517fbb370b2b0000000000000000000000000000000000000000000000000000000081526001600160e01b031960003516600482015260240161030e565b600080826001600160a01b031634878733346040516020016109b19493929190614080565b60408051601f19818403018152908290526109cb916140b0565b60006040518083038185875af1925050503d8060008114610a08576040519150601f19603f3d011682016040523d82523d6000602084013e610a0d565b606091505b50915091508115610a22579250610a2b915050565b80518060208301fd5b92915050565b60006001600160e01b031982167f3a271706000000000000000000000000000000000000000000000000000000001480610a6f5750610a6f82611a50565b80610a2b5750610a2b82611a8e565b610a86611ac5565b610a8e611b1a565b565b6060610a9c8383611b5c565b9392505050565b6060825167ffffffffffffffff811115610abf57610abf613657565b604051908082528060200260200182016040528015610af257816020015b6060815260200190600190039081610add5790505b50905060005b8351811015610b6257610b3d848281518110610b1657610b166140cc565b6020026020010151848381518110610b3057610b306140cc565b6020026020010151611b5c565b828281518110610b4f57610b4f6140cc565b6020908102919091010152600101610af8565b5092915050565b6000818152600360205260408120546001600160a01b031680610a2b57604051635747cd1b60e11b81526004810184905260240161030e565b6000610bad82611c71565b610a9c8383611ca9565b6000610bc2600a5490565b905090565b610bcf611ac5565b6011610bdc82848361415e565b507ff85f74f3190acca77203c20a6d4934fd0908afeec893df8bc8c9ca6edfbf9be88282604051610c0e929190613579565b60405180910390a15050565b6060610c2582611c71565b6000828152600560205260409020610a2b90611ce6565b610c463384611ca9565b610c85576040517f1294d2a90000000000000000000000000000000000000000000000000000000081526004810184905233602482015260440161030e565b610c928585858585611cf3565b5050505050565b610ca1611ac5565b600f5460ff1615610a8e57600f805460ff191690556040517f1142a68cc39970640eb3524e77b91f78be21abc64f20f5919387eb46699bb77290600090a1565b6060610a2b82611ee1565b60608167ffffffffffffffff811115610d0757610d07613657565b604051908082528060200260200182016040528015610d3a57816020015b6060815260200190600190039081610d255790505b50905060005b82811015610b625760008030868685818110610d5e57610d5e6140cc565b9050602002810190610d70919061421e565b604051610d7e929190614265565b600060405180830381855af49150503d8060008114610db9576040519150601f19603f3d011682016040523d82523d6000602084013e610dbe565b606091505b509150915081610e0d57805115610dd85780518082602001fd5b6040517f234eb8190000000000000000000000000000000000000000000000000000000081526004810184905260240161030e565b80848481518110610e2057610e206140cc565b60209081029190910101525050600101610d40565b6000610a2b82611f83565b610e48611ac5565b610a8e6000611fa4565b8451845181141580610e65575083518114155b80610e71575082518114155b80610e7d575081518114155b15610eb4576040517f93a8311900000000000000000000000000000000000000000000000000000000815260040160405180910390fd5b60005b81811015610f5157610f49878281518110610ed457610ed46140cc565b6020026020010151878381518110610eee57610eee6140cc565b6020026020010151878481518110610f0857610f086140cc565b6020026020010151878581518110610f2257610f226140cc565b6020026020010151878681518110610f3c57610f3c6140cc565b6020026020010151610c3c565b600101610eb7565b50505050505050565b610f62611ac5565b3415610f815760405163f36ba73760e01b815260040160405180910390fd5b610f8b828261201f565b5050565b6000610f9a83610b69565b90506001600160a01b0381163314610fdd57604051632d938f5160e11b81526001600160a01b03821660048201526024810184905233604482015260640161030e565b6001600160a01b03841661100457604051639577b8b360e01b815260040160405180910390fd5b836001600160a01b0316816001600160a01b031603611036576040516344fed6b160e11b815260040160405180910390fd5b600083815260056020526040812061104e9086612082565b905080611099576040517fa7626b680000000000000000000000000000000000000000000000000000000081526001600160a01b03861660048201526024810185905260440161030e565b83826001600160a01b0316866001600160a01b03167f1b1b58aa2ec0cec2228b2d37124556d41f5a1f7b12f089171f896cc236671215866040516110dd9190613644565b60405180910390a4600033856001866040516020016110ff9493929190614275565b604051602081830303815290604052905061111a8682612097565b505050505050565b61112a611ac5565b42841015611167576040517f76429b570000000000000000000000000000000000000000000000000000000081526004810185905260240161030e565b816000036111a1576040517f39af805800000000000000000000000000000000000000000000000000000000815260040160405180910390fd5b600c849055600d839055600e8290556111b981600a55565b6040805185815260208101859052908101839052606081018290527f8aeedf0ed8cd3693ef01d328f512281c622ee40528326aa6fba505184ab13a439060800160405180910390a150505050565b61120f611ac5565b341561122e5760405163f36ba73760e01b815260040160405180910390fd5b8051825114611269576040517f3bcc897900000000000000000000000000000000000000000000000000000000815260040160405180910390fd5b81516000036112a4576040517f97da5f9500000000000000000000000000000000000000000000000000000000815260040160405180910390fd5b60005b82518110156112f4576112ec8382815181106112c5576112c56140cc565b60200260200101518383815181106112df576112df6140cc565b602002602001015161201f565b6001016112a7565b505050565b6001600160a01b0381166000908152600460205260409020606090610a2b90611ce6565b6113256120c2565b6001600160a01b038216611365576040517fd92e233d00000000000000000000000000000000000000000000000000000000815260040160405180910390fd5b8060000361139f576040517f1f2a200500000000000000000000000000000000000000000000000000000000815260040160405180910390fd5b33600090815260106020526040902054818110156113ec576040517fffb97f810000000000000000000000000000000000000000000000000000000081526004810183905260240161030e565b336000908152601060205260408120805484929061140b9084906142c5565b90915550506040516000906001600160a01b0385169084908381818185875af1925050503d806000811461145b576040519150601f19603f3d011682016040523d82523d6000602084013e611460565b606091505b50509050806114ad576040517fa00139f80000000000000000000000000000000000000000000000000000000081526001600160a01b03851660048201526024810184905260440161030e565b6040518381526001600160a01b0385169033907ff7a40077ff7a04c7e61f6f26fb13774259ddf1b6bce9ecf26a8276cdd39926839060200160405180910390a35050610f8b6001600955565b611501611ac5565b8151835114158061151457508051825114155b1561154b576040517f2fa71dfe00000000000000000000000000000000000000000000000000000000815260040160405180910390fd5b8251600003611586576040517f80c9830500000000000000000000000000000000000000000000000000000000815260040160405180910390fd5b60005b83518110156115f0576115e88482815181106115a7576115a76140cc565b60200260200101518483815181106115c1576115c16140cc565b60200260200101518484815181106115db576115db6140cc565b602002602001015161211b565b600101611589565b50505050565b6115fe611ac5565b6112f483838361211b565b600061161484610b69565b90506001600160a01b038116331461165757604051632d938f5160e11b81526001600160a01b03821660048201526024810185905233604482015260640161030e565b6001600160a01b03851661167e57604051639577b8b360e01b815260040160405180910390fd5b846001600160a01b0316816001600160a01b0316036116b0576040516344fed6b160e11b815260040160405180910390fd5b6116bd85828686866121ab565b8215610c9257600033856000856040516020016110ff9493929190614275565b601180546116ea906140e2565b80601f0160208091040260200160405190810160405280929190818152602001828054611716906140e2565b80156117635780601f1061173857610100808354040283529160200191611763565b820191906000526020600020905b81548152906001019060200180831161174657829003601f168201915b505050505081565b6060815167ffffffffffffffff81111561178757611787613657565b6040519080825280602002602001820160405280156117ba57816020015b60608152602001906001900390816117a55790505b50905060005b8251811015611810576117eb8382815181106117de576117de6140cc565b6020026020010151611ee1565b8282815181106117fd576117fd6140cc565b60209081029190910101526001016117c0565b50919050565b600f5460ff1615806118295750600c5442105b1561184757604051632e8acb0d60e01b815260040160405180910390fd5b61184f6120c2565b6118a788888080602002602001604051908101604052809392919081815260200183836020028082843760009201919091525050604080513360208201528b9350019050604051602081830303815290604052612264565b6118b4858585858561237b565b6118be6001600955565b5050505050505050565b6118d0611ac5565b6001600160a01b038116611910576040517f1ad8836c00000000000000000000000000000000000000000000000000000000815260040160405180910390fd5b61191981611fa4565b50565b600f5460ff16158061192f5750600c5442105b1561194d57604051632e8acb0d60e01b815260040160405180910390fd5b6119556120c2565b600a541561198f576040517f1df4698600000000000000000000000000000000000000000000000000000000815260040160405180910390fd5b61199c858585858561237b565b610c926001600955565b600080806119de7fcee78b4094da86011096000000000000000000000000000000000000000000006001600160e01b03198616612663565b905060006119eb82611ee1565b905080516014141580156119ff5750805115155b15611a3857806040517f42bfe79f00000000000000000000000000000000000000000000000000000000815260040161030e9190613644565b611a41816142d8565b60601c95600195509350505050565b60006001600160e01b031982167fa918fa6b000000000000000000000000000000000000000000000000000000001480610a2b5750610a2b826126d4565b600080611aa16301ffc9a760e01b6119a6565b5090506001600160a01b038116611abb5750600092915050565b610a9c8184612722565b33611ad86000546001600160a01b031690565b6001600160a01b031614610a8e576040517fbf1169c500000000000000000000000000000000000000000000000000000000815233600482015260240161030e565b600f5460ff16610a8e57600f805460ff191660011790556040517fed1cd0670ee0c0017f550451a038818c696d0b6a9d6ce5b369e44275573cf9b090600090a1565b60606000611b6a84846127c0565b90507f9afb95cacc9f95858ec44aa8c3b685511002e30ae54415823f406128b85b238e83148015611b9a57508051155b15610a9c576000611bca7f1a7628600c3bac7101f53697f48df381ddc36b9015e7d7c9c5633d1252aa2843611ee1565b90508051600003611c695760118054611be2906140e2565b80601f0160208091040260200160405190810160405280929190818152602001828054611c0e906140e2565b8015611c5b5780601f10611c3057610100808354040283529160200191611c5b565b820191906000526020600020905b815481529060010190602001808311611c3e57829003601f168201915b505050505092505050610a2b565b509392505050565b6000818152600360205260409020546001600160a01b031661191957604051635747cd1b60e11b81526004810182905260240161030e565b6000611cb482610b69565b6001600160a01b0316836001600160a01b03161480610a9c57506000828152600560205260409020610a9c9084612897565b60606000610a9c836128b9565b836001600160a01b0316856001600160a01b031603611d3e576040517f5d67d6c100000000000000000000000000000000000000000000000000000000815260040160405180910390fd5b6000611d4984610b69565b9050856001600160a01b0316816001600160a01b031614611d9757604051632d938f5160e11b81526001600160a01b038083166004830152602482018690528716604482015260640161030e565b6001600160a01b038516611dbe576040516324ecef4d60e01b815260040160405180910390fd5b611dca86868685612914565b611dd384610b69565b9050611ddf8685612920565b6001600160a01b0386166000908152600460205260409020611e019085612978565b506001600160a01b0385166000908152600460205260409020611e249085612984565b5060008481526003602052604090819020805473ffffffffffffffffffffffffffffffffffffffff19166001600160a01b0388811691821790925591518692918916907fb333c813a7426a7a11e2b190cad52c44119421594b47f6f32ace6d8c7207b2bf90611e9890339089908990614314565b60405180910390a460003387878786604051602001611ebb959493929190614347565b6040516020818303038152906040529050611ed68782612990565b610f518685836129bb565b6000818152600160205260409020805460609190611efe906140e2565b80601f0160208091040260200160405190810160405280929190818152602001828054611f2a906140e2565b8015611f775780601f10611f4c57610100808354040283529160200191611f77565b820191906000526020600020905b815481529060010190602001808311611f5a57829003601f168201915b50505050509050919050565b6001600160a01b0381166000908152600460205260408120610a2b90612af5565b6000546001600160a01b0382811691161461191957600080546040516001600160a01b03808516939216917f8be0079c531659141344cd1fd0a4f28419497f9722a3daafe3b4186f6b6457e091a3600080546001600160a01b03831673ffffffffffffffffffffffffffffffffffffffff1990911617905550565b7f098a16c9e50e3e99b3e797305c146898d294e5aec55a47e213cb3611ccf17e738201612078576040517f3664800a00000000000000000000000000000000000000000000000000000000815260040160405180910390fd5b610f8b8282612aff565b6000610a9c836001600160a01b038416612b09565b610f8b827f8a1c15a8799f71b547e08e2bcb2e85257e81b0a07eee2ce6712549eef1f0097083612b58565b6002600954036121145760405162461bcd60e51b815260206004820152601f60248201527f5265656e7472616e637947756172643a207265656e7472616e742063616c6c00604482015260640161030e565b6002600955565b8060016000858560405160200161213c929190918252602082015260400190565b604051602081830303815290604052805190602001208152602001908152602001600020908161216c9190614381565b5081837fa6e4251f855f750545fe414f120db91c76b88def14d120969e5bb2d3f05debbb8360405161219e9190613644565b60405180910390a3505050565b60008381526005602052604081206121c39087612ba5565b90508061220e576040517f4aa31a8c0000000000000000000000000000000000000000000000000000000081526001600160a01b03871660048201526024810185905260440161030e565b83856001600160a01b0316876001600160a01b03167fc78cd419d6136f9f1c1c6aec1d3fae098cffaf8bc86314a8f2685e32fe574e3c8686604051612254929190614441565b60405180910390a4505050505050565b600a5461229d576040517f5058901600000000000000000000000000000000000000000000000000000000815260040160405180910390fd5b6122a682612bba565b156122e15781816040517f331e2c3f00000000000000000000000000000000000000000000000000000000815260040161030e92919061445c565b600082826040516020016122f692919061445c565b60408051601f198184030181528282528051602091820120908301520160405160208183030381529060405280519060200120905061233884600a5483612bfb565b6123725782826040517f4a0e7b1300000000000000000000000000000000000000000000000000000000815260040161030e92919061445c565b6115f083612c11565b6040516bffffffffffffffffffffffff1930606090811b8216602084015246603484015287901b1660548201526068810185905234608882015260009060a8016040516020818303038152906040528051906020012090507f00000000000000000000000000000000000000000000000000000000000000006001600160a01b031661240982868686612c4f565b6001600160a01b031614612449576040517f04f186ef00000000000000000000000000000000000000000000000000000000815260040160405180910390fd5b60008561245588610e35565b61245f9190614475565b9050600e548111156124a0576040517f941b43eb0000000000000000000000000000000000000000000000000000000081526004810182905260240161030e565b6000600d54876124b09190614488565b90508034146124ed576040517ffe2b819500000000000000000000000000000000000000000000000000000000815234600482015260240161030e565b6040517f1817cb8e0000000000000000000000000000000000000000000000000000000081526004810182905263ffffffff7f000000000000000000000000000000000000000000000000000000000000000016602482015260009073__$5b628ca37b8143f672fcf025daef31bc96$__90631817cb8e90604401602060405180830381865af4158015612585573d6000803e3d6000fd5b505050506040513d601f19601f820116820180604052508101906125a9919061449f565b90506125b581836142c5565b601060006125cb6000546001600160a01b031690565b6001600160a01b03166001600160a01b0316815260200190815260200160002060008282546125fa9190614475565b90915550506001600160a01b037f00000000000000000000000000000000000000000000000000000000000000001660009081526010602052604081208054839290612647908490614475565b909155506126589050898984612c77565b505050505050505050565b604080517fffffffffffffffffffff00000000000000000000000000000000000000000000841660208201526000602a82018190526bffffffffffffffffffffffff198416602c830152918291016040516020818303038152906040529050806126cc906144b8565b949350505050565b60006001600160e01b031982167f629aa694000000000000000000000000000000000000000000000000000000001480610a2b57506301ffc9a760e01b6001600160e01b0319831614610a2b565b604080516001600160e01b03198316602480830191909152825180830390910181526044909101909152602080820180517bffffffffffffffffffffffffffffffffffffffffffffffffffffffff166301ffc9a760e01b178152825160009392849283928392918391908a617530fa92503d915060005190508280156127a9575060208210155b80156127b55750600081115b979650505050505050565b60606001600084846040516020016127e2929190918252602082015260400190565b6040516020818303038152906040528051906020012081526020019081526020016000208054612811906140e2565b80601f016020809104026020016040519081016040528092919081815260200182805461283d906140e2565b801561288a5780601f1061285f5761010080835404028352916020019161288a565b820191906000526020600020905b81548152906001019060200180831161286d57829003601f168201915b5050505050905092915050565b6001600160a01b03811660009081526001830160205260408120541515610a9c565b606081600001805480602002602001604051908101604052809291908181526020018280548015611f7757602002820191906000526020600020905b8154815260200190600101908083116128f55750505050509050919050565b6115f084848484612db2565b60008181526005602052604081209061293882612af5565b90506000805b8281101561111a57612951846000612e79565b91506129708287876000604051806020016040528060008152506121ab565b60010161293e565b6000610a9c8383612e85565b6000610a9c8383612b09565b610f8b827fb23eae7e6d1564b295b4c3e3be402d9a2f0776c57bdf365903496f6fa481ab0083612b58565b6129cc83631aed5a8560e21b612722565b15612a6657604051631aed5a8560e21b81526001600160a01b03841690636bb56a1490612a1f907f0b084a55ebf70fd3c06fd755269dac2212c4d3f0f4d09079780bfa50c1b2984d90859060040161445c565b6000604051808303816000875af1158015612a3e573d6000803e3d6000fd5b505050506040513d6000823e601f3d908101601f191682016040526115f091908101906144dc565b816112f4576001600160a01b0383163b15612ab8576040517f4349776d0000000000000000000000000000000000000000000000000000000081526001600160a01b038416600482015260240161030e565b6040517f031731370000000000000000000000000000000000000000000000000000000081526001600160a01b038416600482015260240161030e565b6000610a2b825490565b610f8b8282612f78565b6000818152600183016020526040812054612b5057508154600181810184556000848152602080822090930184905584548482528286019093526040902091909155610a2b565b506000610a2b565b612b726001600160a01b038416631aed5a8560e21b612722565b156112f457604051631aed5a8560e21b81526001600160a01b03841690636bb56a1490612a1f908590859060040161445c565b6000610a9c836001600160a01b038416612e85565b600080612bc961010084614560565b90506000612bd961010085614574565b6000928352600b602052604090922054600190921b9182169091149392505050565b600082612c0885846130d8565b14949350505050565b6000612c1f61010083614560565b90506000612c2f61010084614574565b6000928352600b60205260409092208054600190931b9092179091555050565b6000806000612c6087878787613113565b91509150612c6d816131d7565b5095945050505050565b60008267ffffffffffffffff811115612c9257612c92613657565b604051908082528060200260200182016040528015612cbb578160200160208202803683370190505b50905060006012546001612ccf9190614475565b90508360126000828254612ce39190614475565b90915550600090505b84811015612d2657612cfe8183614475565b60001b838281518110612d1357612d136140cc565b6020908102919091010152600101612cec565b50846001600160a01b03167f3c48674dd1f5f1f6cbbeaa3b830f54a7b75f5c1598e1ea94b968ea1424f7bff38385604051612d62929190614588565b60405180910390a260005b8481101561111a57612daa86848381518110612d8b57612d8b6140cc565b602002602001015160006040518060200160405280600081525061333c565b600101612d6d565b6001600160a01b038416612dec576000612dcb60025490565b60008181526007602090815260408083208790558683526008909152902055505b6001600160a01b038316612e745760006001612e0760025490565b612e1191906142c5565b60008481526008602052604090205490915081811015612e53576000828152600760209081526040808320548484528184208190558352600890915290208190555b50600090815260076020908152604080832083905584835260089091528120555b6115f0565b6000610a9c8383613348565b60008181526001830160205260408120548015612f6e576000612ea96001836142c5565b8554909150600090612ebd906001906142c5565b9050818114612f22576000866000018281548110612edd57612edd6140cc565b9060005260206000200154905080876000018481548110612f0057612f006140cc565b6000918252602080832090910192909255918252600188019052604090208390555b8554869080612f3357612f336145aa565b600190038181906000526020600020016000905590558560010160008681526020019081526020016000206000905560019350505050610a2b565b6000915050610a2b565b7f2145e1d6d074577dc71ef54c3807742b41b053a9352ae6b491331509acb9750f8201612fd1576040517f85c169bd00000000000000000000000000000000000000000000000000000000815260040160405180910390fd5b7fd0f59754f88971fe6bc5a6618cc9d5f1e859c58d16b22d1c7b2d3e2b246cd8aa820161302a576040517f76755b3800000000000000000000000000000000000000000000000000000000815260040160405180910390fd5b7f1fd9e056a24d14c4abc642fcc325992a946906d0dbc57dd70278aaf12842024d8201613083576040517f4ef6d7fb00000000000000000000000000000000000000000000000000000000815260040160405180910390fd5b600082815260016020526040902061309b8282614381565b50817fece574603820d07bc9b91f2a932baadf4628aabcb8afba49776529c14a6104b2826040516130cc9190613644565b60405180910390a25050565b600081815b8451811015611c6957613109828683815181106130fc576130fc6140cc565b6020026020010151613372565b91506001016130dd565b6000807f7fffffffffffffffffffffffffffffff5d576e7357a4501ddfe92f46681b20a083111561314a57506000905060036131ce565b6040805160008082526020820180845289905260ff881692820192909252606081018690526080810185905260019060a0016020604051602081039080840390855afa15801561319e573d6000803e3d6000fd5b5050604051601f1901519150506001600160a01b0381166131c7576000600192509250506131ce565b9150600090505b94509492505050565b60008160048111156131eb576131eb6145c0565b036131f35750565b6001816004811115613207576132076145c0565b036132545760405162461bcd60e51b815260206004820152601860248201527f45434453413a20696e76616c6964207369676e61747572650000000000000000604482015260640161030e565b6002816004811115613268576132686145c0565b036132b55760405162461bcd60e51b815260206004820152601f60248201527f45434453413a20696e76616c6964207369676e6174757265206c656e67746800604482015260640161030e565b60038160048111156132c9576132c96145c0565b036119195760405162461bcd60e51b815260206004820152602260248201527f45434453413a20696e76616c6964207369676e6174757265202773272076616c60448201527f7565000000000000000000000000000000000000000000000000000000000000606482015260840161030e565b6115f0848484846133a1565b600082600001828154811061335f5761335f6140cc565b9060005260206000200154905092915050565b600081831061338e576000828152602084905260409020610a9c565b6000838152602083905260409020610a9c565b7f00000000000000000000000000000000000000000000000000000000000000006002546133d0906001614475565b1115613408576040517fe8ba229100000000000000000000000000000000000000000000000000000000815260040160405180910390fd5b6115f0848484846001600160a01b038416613436576040516324ecef4d60e01b815260040160405180910390fd5b6134436000858584612914565b6000838152600360205260409020546001600160a01b031615613495576040517f34c7b5110000000000000000000000000000000000000000000000000000000081526004810184905260240161030e565b6002600081546134a4906145d6565b909155506001600160a01b03841660009081526004602052604090206134ca9084612984565b50600083815260036020526040808220805473ffffffffffffffffffffffffffffffffffffffff19166001600160a01b03881690811790915590518592907fb333c813a7426a7a11e2b190cad52c44119421594b47f6f32ace6d8c7207b2bf9061353990339088908890614314565b60405180910390a4600033600086868560405160200161355d959493929190614347565b6040516020818303038152906040529050610c928584836129bb565b60208152816020820152818360408301376000818301604090810191909152601f909201601f19160101919050565b6000602082840312156135ba57600080fd5b81356001600160e01b031981168114610a9c57600080fd5b600080604083850312156135e557600080fd5b50508035926020909101359150565b60005b8381101561360f5781810151838201526020016135f7565b50506000910152565b600081518084526136308160208601602086016135f4565b601f01601f19169290920160200192915050565b602081526000610a9c6020830184613618565b634e487b7160e01b600052604160045260246000fd5b604051601f8201601f1916810167ffffffffffffffff8111828210171561369657613696613657565b604052919050565b600067ffffffffffffffff8211156136b8576136b8613657565b5060051b60200190565b600082601f8301126136d357600080fd5b813560206136e86136e38361369e565b61366d565b8083825260208201915060208460051b87010193508684111561370a57600080fd5b602086015b84811015613726578035835291830191830161370f565b509695505050505050565b6000806040838503121561374457600080fd5b823567ffffffffffffffff8082111561375c57600080fd5b613768868387016136c2565b9350602085013591508082111561377e57600080fd5b5061378b858286016136c2565b9150509250929050565b600060208083016020845280855180835260408601915060408160051b87010192506020870160005b828110156137ec57603f198886030184526137da858351613618565b945092850192908501906001016137be565b5092979650505050505050565b60006020828403121561380b57600080fd5b5035919050565b80356001600160a01b038116811461382957600080fd5b919050565b6000806040838503121561384157600080fd5b61384a83613812565b946020939093013593505050565b6000806020838503121561386b57600080fd5b823567ffffffffffffffff8082111561388357600080fd5b818501915085601f83011261389757600080fd5b8135818111156138a657600080fd5b8660208285010111156138b857600080fd5b60209290920196919550909350505050565b6020808252825182820181905260009190848201906040850190845b8181101561390b5783516001600160a01b0316835292840192918401916001016138e6565b50909695505050505050565b8035801515811461382957600080fd5b600067ffffffffffffffff82111561394157613941613657565b50601f01601f191660200190565b600082601f83011261396057600080fd5b813561396e6136e382613927565b81815284602083860101111561398357600080fd5b816020850160208301376000918101602001919091529392505050565b600080600080600060a086880312156139b857600080fd5b6139c186613812565b94506139cf60208701613812565b9350604086013592506139e460608701613917565b9150608086013567ffffffffffffffff811115613a0057600080fd5b613a0c8882890161394f565b9150509295509295909350565b60008083601f840112613a2b57600080fd5b50813567ffffffffffffffff811115613a4357600080fd5b6020830191508360208260051b8501011115613a5e57600080fd5b9250929050565b60008060208385031215613a7857600080fd5b823567ffffffffffffffff811115613a8f57600080fd5b613a9b85828601613a19565b90969095509350505050565b600060208284031215613ab957600080fd5b610a9c82613812565b600082601f830112613ad357600080fd5b81356020613ae36136e38361369e565b8083825260208201915060208460051b870101935086841115613b0557600080fd5b602086015b8481101561372657613b1b81613812565b8352918301918301613b0a565b600082601f830112613b3957600080fd5b81356020613b496136e38361369e565b8083825260208201915060208460051b870101935086841115613b6b57600080fd5b602086015b8481101561372657613b8181613917565b8352918301918301613b70565b600082601f830112613b9f57600080fd5b81356020613baf6136e38361369e565b82815260059290921b84018101918181019086841115613bce57600080fd5b8286015b8481101561372657803567ffffffffffffffff811115613bf25760008081fd5b613c008986838b010161394f565b845250918301918301613bd2565b600080600080600060a08688031215613c2657600080fd5b853567ffffffffffffffff80821115613c3e57600080fd5b613c4a89838a01613ac2565b96506020880135915080821115613c6057600080fd5b613c6c89838a01613ac2565b95506040880135915080821115613c8257600080fd5b613c8e89838a016136c2565b94506060880135915080821115613ca457600080fd5b613cb089838a01613b28565b93506080880135915080821115613cc657600080fd5b50613a0c88828901613b8e565b60008060408385031215613ce657600080fd5b82359150602083013567ffffffffffffffff811115613d0457600080fd5b61378b8582860161394f565b600080600060608486031215613d2557600080fd5b613d2e84613812565b925060208401359150604084013567ffffffffffffffff811115613d5157600080fd5b613d5d8682870161394f565b9150509250925092565b60008060008060808587031215613d7d57600080fd5b5050823594602084013594506040840135936060013592509050565b60008060408385031215613dac57600080fd5b823567ffffffffffffffff80821115613dc457600080fd5b613dd0868387016136c2565b93506020850135915080821115613de657600080fd5b5061378b85828601613b8e565b60008151808452602080850194506020840160005b83811015613e2457815187529582019590820190600101613e08565b509495945050505050565b602081526000610a9c6020830184613df3565b600080600060608486031215613e5757600080fd5b833567ffffffffffffffff80821115613e6f57600080fd5b613e7b878388016136c2565b94506020860135915080821115613e9157600080fd5b613e9d878388016136c2565b93506040860135915080821115613eb357600080fd5b50613d5d86828701613b8e565b600080600060608486031215613ed557600080fd5b8335925060208401359150604084013567ffffffffffffffff811115613d5157600080fd5b60008060008060808587031215613f1057600080fd5b613f1985613812565b935060208501359250613f2e60408601613917565b9150606085013567ffffffffffffffff811115613f4a57600080fd5b613f568782880161394f565b91505092959194509250565b600060208284031215613f7457600080fd5b813567ffffffffffffffff811115613f8b57600080fd5b6126cc848285016136c2565b803560ff8116811461382957600080fd5b60008060008060008060008060e0898b031215613fc457600080fd5b883567ffffffffffffffff811115613fdb57600080fd5b613fe78b828c01613a19565b9099509750506020890135955061400060408a01613812565b94506060890135935061401560808a01613f97565b925060a0890135915060c089013590509295985092959890939650565b600080600080600060a0868803121561404a57600080fd5b61405386613812565b94506020860135935061406860408701613f97565b94979396509394606081013594506080013592915050565b8385823760609290921b6bffffffffffffffffffffffff1916919092019081526014810191909152603401919050565b600082516140c28184602087016135f4565b9190910192915050565b634e487b7160e01b600052603260045260246000fd5b600181811c908216806140f657607f821691505b60208210810361181057634e487b7160e01b600052602260045260246000fd5b601f8211156112f4576000816000526020600020601f850160051c8101602086101561413f5750805b601f850160051c820191505b8181101561111a5782815560010161414b565b67ffffffffffffffff83111561417657614176613657565b61418a8361418483546140e2565b83614116565b6000601f8411600181146141be57600085156141a65750838201355b600019600387901b1c1916600186901b178355610c92565b600083815260209020601f19861690835b828110156141ef57868501358255602094850194600190920191016141cf565b508682101561420c5760001960f88860031b161c19848701351681555b505060018560011b0183555050505050565b6000808335601e1984360301811261423557600080fd5b83018035915067ffffffffffffffff82111561425057600080fd5b602001915036819003821315613a5e57600080fd5b8183823760009101908152919050565b6001600160a01b038516815283602082015282151560408201526080606082015260006142a56080830184613618565b9695505050505050565b634e487b7160e01b600052601160045260246000fd5b81810381811115610a2b57610a2b6142af565b805160208201516bffffffffffffffffffffffff19808216929190601483101561430c5780818460140360031b1b83161693505b505050919050565b6001600160a01b0384168152821515602082015260606040820152600061433e6060830184613618565b95945050505050565b60006001600160a01b038088168352808716602084015280861660408401525083606083015260a060808301526127b560a0830184613618565b815167ffffffffffffffff81111561439b5761439b613657565b6143af816143a984546140e2565b84614116565b602080601f8311600181146143e457600084156143cc5750858301515b600019600386901b1c1916600185901b17855561111a565b600085815260208120601f198616915b82811015614413578886015182559484019460019091019084016143f4565b50858210156144315787850151600019600388901b60f8161c191681555b5050505050600190811b01905550565b82151581526040602082015260006126cc6040830184613618565b8281526040602082015260006126cc6040830184613618565b80820180821115610a2b57610a2b6142af565b8082028115828204841417610a2b57610a2b6142af565b6000602082840312156144b157600080fd5b5051919050565b805160208083015191908110156118105760001960209190910360031b1b16919050565b6000602082840312156144ee57600080fd5b815167ffffffffffffffff81111561450557600080fd5b8201601f8101841361451657600080fd5b80516145246136e382613927565b81815285602083850101111561453957600080fd5b61433e8260208301602086016135f4565b634e487b7160e01b600052601260045260246000fd5b60008261456f5761456f61454a565b500490565b6000826145835761458361454a565b500690565b60408152600061459b6040830185613df3565b90508260208301529392505050565b634e487b7160e01b600052603160045260246000fd5b634e487b7160e01b600052602160045260246000fd5b6000600182016145e8576145e86142af565b506001019056fea264697066735822122091df1b1d76d95359414d3316a561d751467b8a9467252e6e82e82addc43acf7b64736f6c63430008160033",
    "linkReferences": {
      "src/common/Points.sol": {
        "Points": [
          {
            "start": 505,
            "length": 20
          },
          {
            "start": 11681,
            "length": 20
          }
        ]
      }
    }
  },
  "methodIdentifiers": {
    "activate()": "0f15f4c0",
    "activated()": "186601ca",
    "allowlist()": "2b47da52",
    "authorizeOperator(address,bytes32,bytes)": "86a10ddd",
    "balanceOf(address)": "70a08231",
    "batchCalls(bytes[])": "6963d438",
    "claim(address,uint256)": "aad3ec96",
    "claimBalanceOf(address)": "942cd44b",
    "configure(uint256,uint256,uint256,bytes32)": "8bbd4378",
    "deactivate()": "51b42b00",
    "defaultTokenUri()": "dd5ffa1e",
    "getData(bytes32)": "54f6127f",
    "getDataBatch(bytes32[])": "dedff9c6",
    "getDataBatchForTokenIds(bytes32[],bytes32[])": "1d26fce6",
    "getDataForTokenId(bytes32,bytes32)": "16e023b3",
    "getOperatorsOf(bytes32)": "49a6078d",
    "isOperatorFor(address,bytes32)": "2a3654a4",
    "mint(address,uint256,uint8,bytes32,bytes32)": "fc618071",
    "mintAllowlist(bytes32[],uint256,address,uint256,uint8,bytes32,bytes32)": "edb8d1e2",
    "mintPrice()": "6817c76c",
    "owner()": "8da5cb5b",
    "profileMintLimit()": "f575191e",
    "renounceOwnership()": "715018a6",
    "revokeOperator(address,bytes32,bool,bytes)": "db8c9663",
    "service()": "d598d4c9",
    "serviceFeePoints()": "3c3e8ae3",
    "setData(bytes32,bytes)": "7f23690c",
    "setDataBatch(bytes32[],bytes[])": "97902421",
    "setDataBatchForTokenIds(bytes32[],bytes32[],bytes[])": "be9f0e6f",
    "setDataForTokenId(bytes32,bytes32,bytes)": "d6c1407c",
    "setDefaultTokenUri(bytes)": "37e3f8dc",
    "startTime()": "78e97925",
    "supportsInterface(bytes4)": "01ffc9a7",
    "tokenAt(uint256)": "92a91a3a",
    "tokenIdsOf(address)": "a3b261f2",
    "tokenOwnerOf(bytes32)": "217b2270",
    "tokenSupplyCap()": "52058d8a",
    "totalSupply()": "18160ddd",
    "transfer(address,address,bytes32,bool,bytes)": "511b6952",
    "transferBatch(address[],address[],bytes32[],bool[],bytes[])": "7e87632c",
    "transferOwnership(address)": "f2fde38b",
    "verifier()": "2b7ac3f3"
  },
  "id": 138
}